{
  "_format": "hh-sol-artifact-1",
  "contractName": "Staking",
  "sourceName": "contracts/Staking.sol",
  "abi": [
    {
      "inputs": [
        {
          "internalType": "contract IERC20",
          "name": "_token",
          "type": "address"
        }
      ],
      "stateMutability": "nonpayable",
      "type": "constructor"
    },
    {
      "anonymous": false,
      "inputs": [
        {
          "indexed": true,
          "internalType": "address",
          "name": "previousOwner",
          "type": "address"
        },
        {
          "indexed": true,
          "internalType": "address",
          "name": "newOwner",
          "type": "address"
        }
      ],
      "name": "OwnershipTransferred",
      "type": "event"
    },
    {
      "anonymous": false,
      "inputs": [
        {
          "indexed": true,
          "internalType": "address",
          "name": "staker",
          "type": "address"
        },
        {
          "indexed": false,
          "internalType": "uint256",
          "name": "stakeId",
          "type": "uint256"
        },
        {
          "indexed": false,
          "internalType": "uint256",
          "name": "amount",
          "type": "uint256"
        },
        {
          "indexed": false,
          "internalType": "uint256",
          "name": "endsAt",
          "type": "uint256"
        }
      ],
      "name": "Staked",
      "type": "event"
    },
    {
      "anonymous": false,
      "inputs": [
        {
          "indexed": true,
          "internalType": "address",
          "name": "staker",
          "type": "address"
        },
        {
          "indexed": false,
          "internalType": "uint256",
          "name": "stakeId",
          "type": "uint256"
        },
        {
          "indexed": false,
          "internalType": "uint256",
          "name": "amount",
          "type": "uint256"
        }
      ],
      "name": "Unstaked",
      "type": "event"
    },
    {
      "inputs": [
        {
          "internalType": "uint256",
          "name": "stakeId",
          "type": "uint256"
        }
      ],
      "name": "claimRewards",
      "outputs": [],
      "stateMutability": "nonpayable",
      "type": "function"
    },
    {
      "inputs": [],
      "name": "currentlyStaked",
      "outputs": [
        {
          "internalType": "uint256",
          "name": "",
          "type": "uint256"
        }
      ],
      "stateMutability": "view",
      "type": "function"
    },
    {
      "inputs": [
        {
          "internalType": "uint256",
          "name": "_amount",
          "type": "uint256"
        },
        {
          "internalType": "address",
          "name": "_address",
          "type": "address"
        }
      ],
      "name": "emergencyRewardWithdraw",
      "outputs": [],
      "stateMutability": "nonpayable",
      "type": "function"
    },
    {
      "inputs": [
        {
          "internalType": "uint256",
          "name": "stakeId",
          "type": "uint256"
        }
      ],
      "name": "emergencyUnstake",
      "outputs": [],
      "stateMutability": "nonpayable",
      "type": "function"
    },
    {
      "inputs": [],
      "name": "exitPenaltyFee",
      "outputs": [
        {
          "internalType": "uint256",
          "name": "",
          "type": "uint256"
        }
      ],
      "stateMutability": "view",
      "type": "function"
    },
    {
      "inputs": [
        {
          "internalType": "uint256",
          "name": "_numDays",
          "type": "uint256"
        }
      ],
      "name": "getIntrestRate",
      "outputs": [
        {
          "internalType": "uint256",
          "name": "",
          "type": "uint256"
        }
      ],
      "stateMutability": "view",
      "type": "function"
    },
    {
      "inputs": [],
      "name": "getLockPeriods",
      "outputs": [
        {
          "internalType": "uint256[]",
          "name": "",
          "type": "uint256[]"
        }
      ],
      "stateMutability": "view",
      "type": "function"
    },
    {
      "inputs": [
        {
          "internalType": "uint256",
          "name": "stakeId",
          "type": "uint256"
        }
      ],
      "name": "getStakeById",
      "outputs": [
        {
          "components": [
            {
              "internalType": "address",
              "name": "owner",
              "type": "address"
            },
            {
              "internalType": "uint256",
              "name": "amount",
              "type": "uint256"
            },
            {
              "internalType": "uint256",
              "name": "createdDate",
              "type": "uint256"
            },
            {
              "internalType": "uint256",
              "name": "unlockDate",
              "type": "uint256"
            },
            {
              "internalType": "uint256",
              "name": "dailyReward",
              "type": "uint256"
            },
            {
              "internalType": "uint256",
              "name": "daysToReward",
              "type": "uint256"
            },
            {
              "internalType": "uint256",
              "name": "lastRewardTimestamp",
              "type": "uint256"
            },
            {
              "internalType": "bool",
              "name": "open",
              "type": "bool"
            }
          ],
          "internalType": "struct Staking.Stake",
          "name": "",
          "type": "tuple"
        }
      ],
      "stateMutability": "view",
      "type": "function"
    },
    {
      "inputs": [
        {
          "internalType": "address",
          "name": "_address",
          "type": "address"
        }
      ],
      "name": "getStakeIdsForAddress",
      "outputs": [
        {
          "internalType": "uint256[]",
          "name": "",
          "type": "uint256[]"
        }
      ],
      "stateMutability": "view",
      "type": "function"
    },
    {
      "inputs": [
        {
          "internalType": "uint256",
          "name": "_twoWeeksApy",
          "type": "uint256"
        },
        {
          "internalType": "uint256",
          "name": "_oneMonthApy",
          "type": "uint256"
        },
        {
          "internalType": "uint256",
          "name": "_threeMonthApy",
          "type": "uint256"
        },
        {
          "internalType": "uint256",
          "name": "_sixMonthApy",
          "type": "uint256"
        },
        {
          "internalType": "uint256",
          "name": "_oneYearApy",
          "type": "uint256"
        },
        {
          "internalType": "address",
          "name": "_rewardsWallet",
          "type": "address"
        },
        {
          "internalType": "uint256",
          "name": "_exitPenaltyFee",
          "type": "uint256"
        }
      ],
      "name": "initializeStaking",
      "outputs": [],
      "stateMutability": "nonpayable",
      "type": "function"
    },
    {
      "inputs": [],
      "name": "initialized",
      "outputs": [
        {
          "internalType": "bool",
          "name": "",
          "type": "bool"
        }
      ],
      "stateMutability": "view",
      "type": "function"
    },
    {
      "inputs": [
        {
          "internalType": "uint256",
          "name": "",
          "type": "uint256"
        }
      ],
      "name": "lockPeriods",
      "outputs": [
        {
          "internalType": "uint256",
          "name": "",
          "type": "uint256"
        }
      ],
      "stateMutability": "view",
      "type": "function"
    },
    {
      "inputs": [
        {
          "internalType": "uint256",
          "name": "_numDays",
          "type": "uint256"
        },
        {
          "internalType": "uint256",
          "name": "_apy",
          "type": "uint256"
        }
      ],
      "name": "modifyLockPeriods",
      "outputs": [],
      "stateMutability": "nonpayable",
      "type": "function"
    },
    {
      "inputs": [],
      "name": "owner",
      "outputs": [
        {
          "internalType": "address",
          "name": "",
          "type": "address"
        }
      ],
      "stateMutability": "view",
      "type": "function"
    },
    {
      "inputs": [],
      "name": "renounceOwnership",
      "outputs": [],
      "stateMutability": "nonpayable",
      "type": "function"
    },
    {
      "inputs": [],
      "name": "rewardsWallet",
      "outputs": [
        {
          "internalType": "address",
          "name": "",
          "type": "address"
        }
      ],
      "stateMutability": "view",
      "type": "function"
    },
    {
      "inputs": [
        {
          "internalType": "address",
          "name": "_newWallet",
          "type": "address"
        }
      ],
      "name": "setRewardsWallet",
      "outputs": [],
      "stateMutability": "nonpayable",
      "type": "function"
    },
    {
      "inputs": [
        {
          "internalType": "uint256",
          "name": "_amount",
          "type": "uint256"
        },
        {
          "internalType": "uint256",
          "name": "_numDays",
          "type": "uint256"
        }
      ],
      "name": "stake",
      "outputs": [],
      "stateMutability": "nonpayable",
      "type": "function"
    },
    {
      "inputs": [
        {
          "internalType": "address",
          "name": "",
          "type": "address"
        },
        {
          "internalType": "uint256",
          "name": "",
          "type": "uint256"
        }
      ],
      "name": "stakeIdsByAddress",
      "outputs": [
        {
          "internalType": "uint256",
          "name": "",
          "type": "uint256"
        }
      ],
      "stateMutability": "view",
      "type": "function"
    },
    {
      "inputs": [
        {
          "internalType": "uint256",
          "name": "",
          "type": "uint256"
        }
      ],
      "name": "stakes",
      "outputs": [
        {
          "internalType": "address",
          "name": "owner",
          "type": "address"
        },
        {
          "internalType": "uint256",
          "name": "amount",
          "type": "uint256"
        },
        {
          "internalType": "uint256",
          "name": "createdDate",
          "type": "uint256"
        },
        {
          "internalType": "uint256",
          "name": "unlockDate",
          "type": "uint256"
        },
        {
          "internalType": "uint256",
          "name": "dailyReward",
          "type": "uint256"
        },
        {
          "internalType": "uint256",
          "name": "daysToReward",
          "type": "uint256"
        },
        {
          "internalType": "uint256",
          "name": "lastRewardTimestamp",
          "type": "uint256"
        },
        {
          "internalType": "bool",
          "name": "open",
          "type": "bool"
        }
      ],
      "stateMutability": "view",
      "type": "function"
    },
    {
      "inputs": [
        {
          "internalType": "uint256",
          "name": "",
          "type": "uint256"
        }
      ],
      "name": "tiers",
      "outputs": [
        {
          "internalType": "uint256",
          "name": "",
          "type": "uint256"
        }
      ],
      "stateMutability": "view",
      "type": "function"
    },
    {
      "inputs": [],
      "name": "token",
      "outputs": [
        {
          "internalType": "contract IERC20",
          "name": "",
          "type": "address"
        }
      ],
      "stateMutability": "view",
      "type": "function"
    },
    {
      "inputs": [],
      "name": "totalStakes",
      "outputs": [
        {
          "internalType": "uint256",
          "name": "",
          "type": "uint256"
        }
      ],
      "stateMutability": "view",
      "type": "function"
    },
    {
      "inputs": [
        {
          "internalType": "address",
          "name": "newOwner",
          "type": "address"
        }
      ],
      "name": "transferOwnership",
      "outputs": [],
      "stateMutability": "nonpayable",
      "type": "function"
    },
    {
      "inputs": [
        {
          "internalType": "uint256",
          "name": "stakeId",
          "type": "uint256"
        }
      ],
      "name": "unstake",
      "outputs": [],
      "stateMutability": "nonpayable",
      "type": "function"
    },
    {
      "inputs": [
        {
          "internalType": "uint256",
          "name": "_newPenalty",
          "type": "uint256"
        }
      ],
      "name": "updateExitPenalty",
      "outputs": [],
      "stateMutability": "nonpayable",
      "type": "function"
    }
  ],
  "bytecode": "0x60806040523480156200001157600080fd5b506040516200321c3803806200321c8339818101604052810190620000379190620001e9565b620000576200004b6200009f60201b60201c565b620000a760201b60201c565b80600260006101000a81548173ffffffffffffffffffffffffffffffffffffffff021916908373ffffffffffffffffffffffffffffffffffffffff160217905550506200021b565b600033905090565b60008060009054906101000a900473ffffffffffffffffffffffffffffffffffffffff169050816000806101000a81548173ffffffffffffffffffffffffffffffffffffffff021916908373ffffffffffffffffffffffffffffffffffffffff1602179055508173ffffffffffffffffffffffffffffffffffffffff168173ffffffffffffffffffffffffffffffffffffffff167f8be0079c531659141344cd1fd0a4f28419497f9722a3daafe3b4186f6b6457e060405160405180910390a35050565b600080fd5b600073ffffffffffffffffffffffffffffffffffffffff82169050919050565b60006200019d8262000170565b9050919050565b6000620001b18262000190565b9050919050565b620001c381620001a4565b8114620001cf57600080fd5b50565b600081519050620001e381620001b8565b92915050565b6000602082840312156200020257620002016200016b565b5b60006200021284828501620001d2565b91505092915050565b612ff1806200022b6000396000f3fe608060405234801561001057600080fd5b506004361061018e5760003560e01c8063715018a6116100de578063b0f0475b11610097578063d5a44f8611610071578063d5a44f861461046d578063ded9f1d3146104a4578063f2fde38b146104c2578063fc0c546a146104de5761018e565b8063b0f0475b14610403578063bf9befb11461041f578063cbf815c11461043d5761018e565b8063715018a6146103695780637b0472f0146103735780638380f93d1461038f5780638da5cb5b146103ad5780638e0b0198146103cb578063a1980430146103e75761018e565b80632e17de781161014b5780634c8f2a78116101255780634c8f2a78146102cf5780635b35f9c9146102ff5780636016c4f31461031d578063662a2cb51461034d5761018e565b80632e17de7814610265578063318831451461028157806341ee13be146102b15761018e565b8063012ce50114610193578063039af9eb146101af5780630962ef79146101df578063158ef93e146101fb57806316563cf11461021957806318313fa214610249575b600080fd5b6101ad60048036038101906101a89190611f9a565b6104fc565b005b6101c960048036038101906101c49190611f9a565b610886565b6040516101d69190611fd6565b60405180910390f35b6101f960048036038101906101f49190611f9a565b61089e565b005b610203610c72565b604051610210919061200c565b60405180910390f35b610233600480360381019061022e9190612085565b610c85565b6040516102409190612170565b60405180910390f35b610263600480360381019061025e9190612192565b610d1c565b005b61027f600480360381019061027a9190611f9a565b610f98565b005b61029b60048036038101906102969190611f9a565b611352565b6040516102a891906122f4565b60405180910390f35b6102b9611487565b6040516102c69190612170565b60405180910390f35b6102e960048036038101906102e49190611f9a565b6114df565b6040516102f69190611fd6565b60405180910390f35b610307611503565b604051610314919061231f565b60405180910390f35b61033760048036038101906103329190611f9a565b611529565b6040516103449190611fd6565b60405180910390f35b6103676004803603810190610362919061233a565b611546565b005b6103716116ef565b005b61038d6004803603810190610388919061237a565b611703565b005b610397611a70565b6040516103a49190611fd6565b60405180910390f35b6103b5611a76565b6040516103c2919061231f565b60405180910390f35b6103e560048036038101906103e09190611f9a565b611a9f565b005b61040160048036038101906103fc9190612085565b611af4565b005b61041d6004803603810190610418919061237a565b611b40565b005b610427611bed565b6040516104349190611fd6565b60405180910390f35b610457600480360381019061045291906123ba565b611bfe565b6040516104649190611fd6565b60405180910390f35b61048760048036038101906104829190611f9a565b611c2f565b60405161049b9897969594939291906123fa565b60405180910390f35b6104ac611ca4565b6040516104b99190611fd6565b60405180910390f35b6104dc60048036038101906104d79190612085565b611caa565b005b6104e6611d2e565b6040516104f391906124d7565b60405180910390f35b8060008111801561051657506105126001611d54565b8111155b610555576040517f08c379a000000000000000000000000000000000000000000000000000000000815260040161054c9061254f565b60405180910390fd5b600060076000848152602001908152602001600020604051806101000160405290816000820160009054906101000a900473ffffffffffffffffffffffffffffffffffffffff1673ffffffffffffffffffffffffffffffffffffffff1673ffffffffffffffffffffffffffffffffffffffff1681526020016001820154815260200160028201548152602001600382015481526020016004820154815260200160058201548152602001600682015481526020016007820160009054906101000a900460ff16151515158152505090508060e00151610669576040517f08c379a0000000000000000000000000000000000000000000000000000000008152600401610660906125bb565b60405180910390fd5b806000015173ffffffffffffffffffffffffffffffffffffffff163373ffffffffffffffffffffffffffffffffffffffff16146106db576040517f08c379a00000000000000000000000000000000000000000000000000000000081526004016106d290612627565b60405180910390fd5b6000606460055483602001516106f19190612676565b6106fb91906126ff565b826020015161070a9190612730565b905060006007600086815260200190815260200160002060070160006101000a81548160ff0219169083151502179055506000600760008681526020019081526020016000206005018190555081602001516004600082825461076d9190612730565b92505081905550816000015173ffffffffffffffffffffffffffffffffffffffff167f7fc4727e062e336010f2c282598ef5f14facb3de68cf8195c2f23e1454b2b74e8584602001516040516107c4929190612764565b60405180910390a2600260009054906101000a900473ffffffffffffffffffffffffffffffffffffffff1673ffffffffffffffffffffffffffffffffffffffff1663a9059cbb8360000151836040518363ffffffff1660e01b815260040161082d92919061278d565b602060405180830381600087803b15801561084757600080fd5b505af115801561085b573d6000803e3d6000fd5b505050506040513d601f19601f8201168201806040525081019061087f91906127e2565b5050505050565b60096020528060005260406000206000915090505481565b806000811180156108b857506108b46001611d54565b8111155b6108f7576040517f08c379a00000000000000000000000000000000000000000000000000000000081526004016108ee9061254f565b60405180910390fd5b600060076000848152602001908152602001600020604051806101000160405290816000820160009054906101000a900473ffffffffffffffffffffffffffffffffffffffff1673ffffffffffffffffffffffffffffffffffffffff1673ffffffffffffffffffffffffffffffffffffffff1681526020016001820154815260200160028201548152602001600382015481526020016004820154815260200160058201548152602001600682015481526020016007820160009054906101000a900460ff16151515158152505090508060e00151610a0b576040517f08c379a0000000000000000000000000000000000000000000000000000000008152600401610a029061285b565b60405180910390fd5b806000015173ffffffffffffffffffffffffffffffffffffffff163373ffffffffffffffffffffffffffffffffffffffff1614610a7d576040517f08c379a0000000000000000000000000000000000000000000000000000000008152600401610a74906128c7565b60405180910390fd5b60008160a0015111610ac4576040517f08c379a0000000000000000000000000000000000000000000000000000000008152600401610abb90612959565b60405180910390fd5b6000620151808260c0015142610ada9190612730565b610ae491906126ff565b9050808260a001511015610afa578160a0015190505b60008111610b3d576040517f08c379a0000000000000000000000000000000000000000000000000000000008152600401610b34906129eb565b60405180910390fd5b600260009054906101000a900473ffffffffffffffffffffffffffffffffffffffff1673ffffffffffffffffffffffffffffffffffffffff166323b872dd600360009054906101000a900473ffffffffffffffffffffffffffffffffffffffff168460000151856080015185610bb39190612676565b6040518463ffffffff1660e01b8152600401610bd193929190612a0b565b602060405180830381600087803b158015610beb57600080fd5b505af1158015610bff573d6000803e3d6000fd5b505050506040513d601f19601f82011682018060405250810190610c2391906127e2565b5042600760008681526020019081526020016000206006018190555080600760008681526020019081526020016000206005016000828254610c659190612730565b9250508190555050505050565b600360149054906101000a900460ff1681565b6060600860008373ffffffffffffffffffffffffffffffffffffffff1673ffffffffffffffffffffffffffffffffffffffff168152602001908152602001600020805480602002602001604051908101604052809291908181526020018280548015610d1057602002820191906000526020600020905b815481526020019060010190808311610cfc575b50505050509050919050565b610d24611d62565b600360149054906101000a900460ff1615610d74576040517f08c379a0000000000000000000000000000000000000000000000000000000008152600401610d6b90612a8e565b60405180910390fd5b600086118015610d845750600085115b8015610d905750600084115b8015610d9c5750600083115b610ddb576040517f08c379a0000000000000000000000000000000000000000000000000000000008152600401610dd290612afa565b60405180910390fd5b6001600360146101000a81548160ff02191690831515021790555081600360006101000a81548173ffffffffffffffffffffffffffffffffffffffff021916908373ffffffffffffffffffffffffffffffffffffffff160217905550806005819055508660096000600e8152602001908152602001600020819055508560096000601e8152602001908152602001600020819055508460096000605a815260200190815260200160002081905550836009600060b481526020019081526020016000208190555082600960006101688152602001908152602001600020819055506006600e90806001815401808255809150506001900390600052602060002001600090919091909150556006601e90806001815401808255809150506001900390600052602060002001600090919091909150556006605a9080600181540180825580915050600190039060005260206000200160009091909190915055600660b490806001815401808255809150506001900390600052602060002001600090919091909150556006610168908060018154018082558091505060019003906000526020600020016000909190919091505550505050505050565b80600081118015610fb25750610fae6001611d54565b8111155b610ff1576040517f08c379a0000000000000000000000000000000000000000000000000000000008152600401610fe89061254f565b60405180910390fd5b600060076000848152602001908152602001600020604051806101000160405290816000820160009054906101000a900473ffffffffffffffffffffffffffffffffffffffff1673ffffffffffffffffffffffffffffffffffffffff1673ffffffffffffffffffffffffffffffffffffffff1681526020016001820154815260200160028201548152602001600382015481526020016004820154815260200160058201548152602001600682015481526020016007820160009054906101000a900460ff16151515158152505090508060e00151611105576040517f08c379a00000000000000000000000000000000000000000000000000000000081526004016110fc906125bb565b60405180910390fd5b806000015173ffffffffffffffffffffffffffffffffffffffff163373ffffffffffffffffffffffffffffffffffffffff1614611177576040517f08c379a000000000000000000000000000000000000000000000000000000000815260040161116e90612627565b60405180910390fd5b42816060015111156111be576040517f08c379a00000000000000000000000000000000000000000000000000000000081526004016111b590612b66565b60405180910390fd5b60008160a0015111156111d5576111d48361089e565b5b60006007600085815260200190815260200160002060070160006101000a81548160ff021916908315150217905550600060076000858152602001908152602001600020600501819055508060200151600460008282546112369190612730565b92505081905550806000015173ffffffffffffffffffffffffffffffffffffffff167f7fc4727e062e336010f2c282598ef5f14facb3de68cf8195c2f23e1454b2b74e84836020015160405161128d929190612764565b60405180910390a2600260009054906101000a900473ffffffffffffffffffffffffffffffffffffffff1673ffffffffffffffffffffffffffffffffffffffff1663a9059cbb826000015183602001516040518363ffffffff1660e01b81526004016112fa92919061278d565b602060405180830381600087803b15801561131457600080fd5b505af1158015611328573d6000803e3d6000fd5b505050506040513d601f19601f8201168201806040525081019061134c91906127e2565b50505050565b61135a611f02565b8160008111801561137457506113706001611d54565b8111155b6113b3576040517f08c379a00000000000000000000000000000000000000000000000000000000081526004016113aa9061254f565b60405180910390fd5b60076000848152602001908152602001600020604051806101000160405290816000820160009054906101000a900473ffffffffffffffffffffffffffffffffffffffff1673ffffffffffffffffffffffffffffffffffffffff1673ffffffffffffffffffffffffffffffffffffffff1681526020016001820154815260200160028201548152602001600382015481526020016004820154815260200160058201548152602001600682015481526020016007820160009054906101000a900460ff161515151581525050915050919050565b606060068054806020026020016040519081016040528092919081815260200182805480156114d557602002820191906000526020600020905b8154815260200190600101908083116114c1575b5050505050905090565b600681815481106114ef57600080fd5b906000526020600020016000915090505481565b600360009054906101000a900473ffffffffffffffffffffffffffffffffffffffff1681565b600060096000838152602001908152602001600020549050919050565b61154e611d62565b600260009054906101000a900473ffffffffffffffffffffffffffffffffffffffff1673ffffffffffffffffffffffffffffffffffffffff166370a08231306040518263ffffffff1660e01b81526004016115a9919061231f565b60206040518083038186803b1580156115c157600080fd5b505afa1580156115d5573d6000803e3d6000fd5b505050506040513d601f19601f820116820180604052508101906115f99190612b9b565b82111561163b576040517f08c379a000000000000000000000000000000000000000000000000000000000815260040161163290612c14565b60405180910390fd5b600260009054906101000a900473ffffffffffffffffffffffffffffffffffffffff1673ffffffffffffffffffffffffffffffffffffffff1663a9059cbb82846040518363ffffffff1660e01b815260040161169892919061278d565b602060405180830381600087803b1580156116b257600080fd5b505af11580156116c6573d6000803e3d6000fd5b505050506040513d601f19601f820116820180604052508101906116ea91906127e2565b505050565b6116f7611d62565b6117016000611de0565b565b6000600960008381526020019081526020016000205411611759576040517f08c379a000000000000000000000000000000000000000000000000000000000815260040161175090612ca6565b60405180910390fd5b6000821161179c576040517f08c379a000000000000000000000000000000000000000000000000000000000815260040161179390612d38565b60405180910390fd5b600260009054906101000a900473ffffffffffffffffffffffffffffffffffffffff1673ffffffffffffffffffffffffffffffffffffffff166323b872dd3330856040518463ffffffff1660e01b81526004016117fb93929190612a0b565b602060405180830381600087803b15801561181557600080fd5b505af1158015611829573d6000803e3d6000fd5b505050506040513d601f19601f8201168201806040525081019061184d91906127e2565b506118586001611ea4565b60006118646001611d54565b9050600062015180836118779190612676565b426118829190612d58565b90506040518061010001604052803373ffffffffffffffffffffffffffffffffffffffff1681526020018581526020014281526020018281526020016118c88686611eba565b8152602001848152602001428152602001600115158152506007600084815260200190815260200160002060008201518160000160006101000a81548173ffffffffffffffffffffffffffffffffffffffff021916908373ffffffffffffffffffffffffffffffffffffffff1602179055506020820151816001015560408201518160020155606082015181600301556080820151816004015560a0820151816005015560c0820151816006015560e08201518160070160006101000a81548160ff021916908315150217905550905050600860003373ffffffffffffffffffffffffffffffffffffffff1673ffffffffffffffffffffffffffffffffffffffff1681526020019081526020016000208290806001815401808255809150506001900390600052602060002001600090919091909150558360046000828254611a119190612d58565b925050819055503373ffffffffffffffffffffffffffffffffffffffff167fb4caaf29adda3eefee3ad552a8e85058589bf834c7466cae4ee58787f70589ed838684604051611a6293929190612dae565b60405180910390a250505050565b60045481565b60008060009054906101000a900473ffffffffffffffffffffffffffffffffffffffff16905090565b611aa7611d62565b60008111611aea576040517f08c379a0000000000000000000000000000000000000000000000000000000008152600401611ae190612e31565b60405180910390fd5b8060058190555050565b611afc611d62565b80600360006101000a81548173ffffffffffffffffffffffffffffffffffffffff021916908373ffffffffffffffffffffffffffffffffffffffff16021790555050565b611b48611d62565b60008111611b8b576040517f08c379a0000000000000000000000000000000000000000000000000000000008152600401611b8290612e9d565b60405180910390fd5b600060096000848152602001908152602001600020541415611bd15760068290806001815401808255809150506001900390600052602060002001600090919091909150555b8060096000848152602001908152602001600020819055505050565b6000611bf96001611d54565b905090565b60086020528160005260406000208181548110611c1a57600080fd5b90600052602060002001600091509150505481565b60076020528060005260406000206000915090508060000160009054906101000a900473ffffffffffffffffffffffffffffffffffffffff16908060010154908060020154908060030154908060040154908060050154908060060154908060070160009054906101000a900460ff16905088565b60055481565b611cb2611d62565b600073ffffffffffffffffffffffffffffffffffffffff168173ffffffffffffffffffffffffffffffffffffffff161415611d22576040517f08c379a0000000000000000000000000000000000000000000000000000000008152600401611d1990612f2f565b60405180910390fd5b611d2b81611de0565b50565b600260009054906101000a900473ffffffffffffffffffffffffffffffffffffffff1681565b600081600001549050919050565b611d6a611efa565b73ffffffffffffffffffffffffffffffffffffffff16611d88611a76565b73ffffffffffffffffffffffffffffffffffffffff1614611dde576040517f08c379a0000000000000000000000000000000000000000000000000000000008152600401611dd590612f9b565b60405180910390fd5b565b60008060009054906101000a900473ffffffffffffffffffffffffffffffffffffffff169050816000806101000a81548173ffffffffffffffffffffffffffffffffffffffff021916908373ffffffffffffffffffffffffffffffffffffffff1602179055508173ffffffffffffffffffffffffffffffffffffffff168173ffffffffffffffffffffffffffffffffffffffff167f8be0079c531659141344cd1fd0a4f28419497f9722a3daafe3b4186f6b6457e060405160405180910390a35050565b6001816000016000828254019250508190555050565b6000816064600960008581526020019081526020016000205485611ede9190612676565b611ee891906126ff565b611ef291906126ff565b905092915050565b600033905090565b604051806101000160405280600073ffffffffffffffffffffffffffffffffffffffff1681526020016000815260200160008152602001600081526020016000815260200160008152602001600081526020016000151581525090565b600080fd5b6000819050919050565b611f7781611f64565b8114611f8257600080fd5b50565b600081359050611f9481611f6e565b92915050565b600060208284031215611fb057611faf611f5f565b5b6000611fbe84828501611f85565b91505092915050565b611fd081611f64565b82525050565b6000602082019050611feb6000830184611fc7565b92915050565b60008115159050919050565b61200681611ff1565b82525050565b60006020820190506120216000830184611ffd565b92915050565b600073ffffffffffffffffffffffffffffffffffffffff82169050919050565b600061205282612027565b9050919050565b61206281612047565b811461206d57600080fd5b50565b60008135905061207f81612059565b92915050565b60006020828403121561209b5761209a611f5f565b5b60006120a984828501612070565b91505092915050565b600081519050919050565b600082825260208201905092915050565b6000819050602082019050919050565b6120e781611f64565b82525050565b60006120f983836120de565b60208301905092915050565b6000602082019050919050565b600061211d826120b2565b61212781856120bd565b9350612132836120ce565b8060005b8381101561216357815161214a88826120ed565b975061215583612105565b925050600181019050612136565b5085935050505092915050565b6000602082019050818103600083015261218a8184612112565b905092915050565b600080600080600080600060e0888a0312156121b1576121b0611f5f565b5b60006121bf8a828b01611f85565b97505060206121d08a828b01611f85565b96505060406121e18a828b01611f85565b95505060606121f28a828b01611f85565b94505060806122038a828b01611f85565b93505060a06122148a828b01612070565b92505060c06122258a828b01611f85565b91505092959891949750929550565b61223d81612047565b82525050565b61224c81611ff1565b82525050565b610100820160008201516122696000850182612234565b50602082015161227c60208501826120de565b50604082015161228f60408501826120de565b5060608201516122a260608501826120de565b5060808201516122b560808501826120de565b5060a08201516122c860a08501826120de565b5060c08201516122db60c08501826120de565b5060e08201516122ee60e0850182612243565b50505050565b60006101008201905061230a6000830184612252565b92915050565b61231981612047565b82525050565b60006020820190506123346000830184612310565b92915050565b6000806040838503121561235157612350611f5f565b5b600061235f85828601611f85565b925050602061237085828601612070565b9150509250929050565b6000806040838503121561239157612390611f5f565b5b600061239f85828601611f85565b92505060206123b085828601611f85565b9150509250929050565b600080604083850312156123d1576123d0611f5f565b5b60006123df85828601612070565b92505060206123f085828601611f85565b9150509250929050565b600061010082019050612410600083018b612310565b61241d602083018a611fc7565b61242a6040830189611fc7565b6124376060830188611fc7565b6124446080830187611fc7565b61245160a0830186611fc7565b61245e60c0830185611fc7565b61246b60e0830184611ffd565b9998505050505050505050565b6000819050919050565b600061249d61249861249384612027565b612478565b612027565b9050919050565b60006124af82612482565b9050919050565b60006124c1826124a4565b9050919050565b6124d1816124b6565b82525050565b60006020820190506124ec60008301846124c8565b92915050565b600082825260208201905092915050565b7f5374616b6520696420646f6573206e6f74206578697374000000000000000000600082015250565b60006125396017836124f2565b915061254482612503565b602082019050919050565b600060208201905081810360008301526125688161252c565b9050919050565b7f5374616b6520697320636c6f7365640000000000000000000000000000000000600082015250565b60006125a5600f836124f2565b91506125b08261256f565b602082019050919050565b600060208201905081810360008301526125d481612598565b9050919050565b7f4f6e6c79206f776e65722063616e20756e7374616b6500000000000000000000600082015250565b60006126116016836124f2565b915061261c826125db565b602082019050919050565b6000602082019050818103600083015261264081612604565b9050919050565b7f4e487b7100000000000000000000000000000000000000000000000000000000600052601160045260246000fd5b600061268182611f64565b915061268c83611f64565b9250817fffffffffffffffffffffffffffffffffffffffffffffffffffffffffffffffff04831182151516156126c5576126c4612647565b5b828202905092915050565b7f4e487b7100000000000000000000000000000000000000000000000000000000600052601260045260246000fd5b600061270a82611f64565b915061271583611f64565b925082612725576127246126d0565b5b828204905092915050565b600061273b82611f64565b915061274683611f64565b92508282101561275957612758612647565b5b828203905092915050565b60006040820190506127796000830185611fc7565b6127866020830184611fc7565b9392505050565b60006040820190506127a26000830185612310565b6127af6020830184611fc7565b9392505050565b6127bf81611ff1565b81146127ca57600080fd5b50565b6000815190506127dc816127b6565b92915050565b6000602082840312156127f8576127f7611f5f565b5b6000612806848285016127cd565b91505092915050565b7f7374616b6520697320636c6f7365640000000000000000000000000000000000600082015250565b6000612845600f836124f2565b91506128508261280f565b602082019050919050565b6000602082019050818103600083015261287481612838565b9050919050565b7f4f6e6c79206f776e65722063616e20636c61696d000000000000000000000000600082015250565b60006128b16014836124f2565b91506128bc8261287b565b602082019050919050565b600060208201905081810360008301526128e0816128a4565b9050919050565b7f596f75206861766520616c726561647920636c61696d656420616c6c2074686560008201527f206461696c79207265776172647320696e2074686973207374616b6500000000602082015250565b6000612943603c836124f2565b915061294e826128e7565b604082019050919050565b6000602082019050818103600083015261297281612936565b9050919050565b7f57616974206174206c6561737420312064617920746f20636c61696d2072657760008201527f6172647300000000000000000000000000000000000000000000000000000000602082015250565b60006129d56024836124f2565b91506129e082612979565b604082019050919050565b60006020820190508181036000830152612a04816129c8565b9050919050565b6000606082019050612a206000830186612310565b612a2d6020830185612310565b612a3a6040830184611fc7565b949350505050565b7f436f6e747261637420696e697469616c697a656420616c726561647900000000600082015250565b6000612a78601c836124f2565b9150612a8382612a42565b602082019050919050565b60006020820190508181036000830152612aa781612a6b565b9050919050565b7f4f6e65206f66207468652052657761726473206973207a65726f000000000000600082015250565b6000612ae4601a836124f2565b9150612aef82612aae565b602082019050919050565b60006020820190508181036000830152612b1381612ad7565b9050919050565b7f43616e6e6f7420756e7374616b65206265666f7265206d617475726974790000600082015250565b6000612b50601e836124f2565b9150612b5b82612b1a565b602082019050919050565b60006020820190508181036000830152612b7f81612b43565b9050919050565b600081519050612b9581611f6e565b92915050565b600060208284031215612bb157612bb0611f5f565b5b6000612bbf84828501612b86565b91505092915050565b7f6e6f7420656e6f75676820746f6b656e7320746f2074616b65206f7574000000600082015250565b6000612bfe601d836124f2565b9150612c0982612bc8565b602082019050919050565b60006020820190508181036000830152612c2d81612bf1565b9050919050565b7f5374616b696e672054696d652073686f756c6420626520696e2074696d65206c60008201527f696d69747320646566696e656400000000000000000000000000000000000000602082015250565b6000612c90602d836124f2565b9150612c9b82612c34565b604082019050919050565b60006020820190508181036000830152612cbf81612c83565b9050919050565b7f5374616b696e67206d7573742062652067726561746572207468656e207a657260008201527f6f00000000000000000000000000000000000000000000000000000000000000602082015250565b6000612d226021836124f2565b9150612d2d82612cc6565b604082019050919050565b60006020820190508181036000830152612d5181612d15565b9050919050565b6000612d6382611f64565b9150612d6e83611f64565b9250827fffffffffffffffffffffffffffffffffffffffffffffffffffffffffffffffff03821115612da357612da2612647565b5b828201905092915050565b6000606082019050612dc36000830186611fc7565b612dd06020830185611fc7565b612ddd6040830184611fc7565b949350505050565b7f50656e616c74792073686f756c64206e6f74206265207a65726f000000000000600082015250565b6000612e1b601a836124f2565b9150612e2682612de5565b602082019050919050565b60006020820190508181036000830152612e4a81612e0e565b9050919050565b7f696e76616c696420617079000000000000000000000000000000000000000000600082015250565b6000612e87600b836124f2565b9150612e9282612e51565b602082019050919050565b60006020820190508181036000830152612eb681612e7a565b9050919050565b7f4f776e61626c653a206e6577206f776e657220697320746865207a65726f206160008201527f6464726573730000000000000000000000000000000000000000000000000000602082015250565b6000612f196026836124f2565b9150612f2482612ebd565b604082019050919050565b60006020820190508181036000830152612f4881612f0c565b9050919050565b7f4f776e61626c653a2063616c6c6572206973206e6f7420746865206f776e6572600082015250565b6000612f856020836124f2565b9150612f9082612f4f565b602082019050919050565b60006020820190508181036000830152612fb481612f78565b905091905056fea26469706673582212204b4ccb7a7afe9d5176202fff45aa73fe76901b9e58f37cfb8414275ba81045ad64736f6c63430008090033",
  "linkReferences": {},
  "deployedLinkReferences": {}
}